:040000008031212802
:100008007E1480310B1F13282E0099188F1C13287B
:1000180020005E088A005D080A0080311F280B1F37
:100028001F282E0019180F1C1F2820005C088A00A2
:100038005B080A0080317E10090080312328B13026
:10004800840087308500A03086000030870020308B
:100058008F3152278031C030DB01DC01DD01DE0148
:100068008400003085001D308F314C2780317E1090
:1000780020003E28EA2080314B287030B10017302C
:100088004828D030B1000730B200C023803100309A
:100098008A2180314308D8004408D9004508DA008D
:1000A8005808A0005908A1005A08A2004230A3012C
:1000B800A401A500BE208031031C41281830A001EE
:1000C800A1004230A2005808A3005908A4005A0809
:1000D800A500BE208031031C4528C030B401B500FE
:1000E8004030B600C230A801A901AA005808AB00E8
:1000F8005908AC005A08AD00A22280312808B70080
:100108002908B8002A08B9002E2180313408D20005
:100118003508D3003608D4007A30A801A900453044
:10012800AA005208AB005308AC005408AD004622A0
:1001380080312808B7002908B8002A08B90080309B
:10014800BA00BB30BB004530BC00502380313708B3
:10015800D5003808D6003908D7005508A000560839
:10016800A1005708A2006B2380312108B2002008A3
:10017800B1004928A21FCD282008003CA000210872
:10018800031C210F003CA1002208031C220F803C05
:10019800A200A51FDC282308003CA3002408031C98
:1001A800240F003CA4002508031C250F803CA50053
:1001B8008030A206A50625082202031D080024088F
:1001C8002102031D0800230820020800FA208031BC
:1001D800F1208031EE238031DC2B623031008D003C
:1001E8008F01910102309300920108009601970156
:1001F8009801FF30910092009300E7303E00CE0056
:10020800FF30C300B800E501C401B901CF01BA014C
:10021800C501D00100308B1B01302000A0008B13DA
:10022800612680310F104608E0391338C6004508AA
:10023800E0391438C50015303E00A3001430A4007E
:10024800612680310F142000201C2C298B170800F0
:100258008B1308003708BA003808BB003908BC00FF
:1002680003103B0D3C0DC1004108031D3C29712EB4
:100278003408BA003508BB003608BC0003103B0D33
:100288003C0DC2004208031D4A29712E8930BE0167
:10029800BF01C0014207BA00C1023908C2003608CE
:1002A800C2068030C2051830B817B901B517B601B3
:1002B800BD00BE35BF0DC00D36083902031D6A29C1
:1002C80035083802031D6A2934083702031C7329CC
:1002D8003408B7023508B83B3608B93B3E14B73581
:1002E800B80DB90DBD0B5D293E08A0003F08A1005F
:1002F8004008A2004108A3004208A40008222008E0
:10030800B4002108B5002208B6000800CA00A929CF
:100318000030F2218031CB002930A3290130F221AD
:100328008031CB001030A3292330F2218031CB005B
:100338002430A3292A30F2218031CB002B30CC0184
:10034800F2218031CD00CE01B7294A08003A0319BD
:100358008C29013A03199229033A03199829013A79
:1003680003199E29B7294C08C7004B08C600C63593
:10037800C70DC635C70DC635C70D4608A8004708BE
:10038800A9004E08C9004D08C8000530C936C80C78
:10039800890BCA294808A8074908A93DF8218031CE
:1003A8002808CF002908D0002A08D1004130B4011C
:1003B800B501B6004F08B7005008B8005108B90099
:1003C8002E213408CF003508D0003608D1004F0858
:1003D800C3005008C4005108C5000800B200AC00B2
:1003E8004C309D24B30008002808A0002908A1006B
:1003F8008E30A201A300A40108222008A800210829
:10040800A9002208AA00080023080319102A2208B4
:1004180021042004031D182AA001A101A20108003B
:10042800A30AA236A10CA00CFE3022050319262A25
:10043800142AA30AA00A0319A10A0319A20AA236B8
:10044800A10CA00CFF3022050319332A1D2A023003
:100458002302031C352AA303A035A10DA20DA11F59
:100468002B2A231CA113A3362308A700A601A50144
:100478002508A0042608A1042708A2042408031DAF
:10048800A21708002808AE002908AF002A08B00003
:1004980003102F0D300DB1003108031D542A6D2EA5
:1004A8002B08AE002C08AF002D08B00003102F0D4C
:1004B800300DB6003608031D622A6D2E36087B3EC5
:1004C800B1072A08B6002D08B6068030B605FF30F9
:1004D800A917AC17AB05AC050730AD01B201B301E4
:1004E800B401B500281C7A2A5A268031AA36A90CEC
:1004F800A80CAB35AC0DAD0DB50B762A0930B5009F
:10050800281C882A5A268031AA36A90CA80CB43689
:10051800B30CB20CB50B842A3208A0003308A10032
:100528003408A2003108A3003608A40008222008D5
:10053800A8002108A9002208AA0008002808AE007F
:100548002908AF002A08B00003102F0D300DB300A2
:100558002B08AE002C08AF002D08B00003102F0D9B
:10056800300DB20033080319C52A320833023208A5
:100578000318CD2AAE003308AE0219302E02031C30
:10058800CC2A2B08A8002C08A9002D08AA000800CE
:10059800320803190800330832020318DB2A33082B
:1005A800AE003208AE0219302E02031808000630D9
:1005B800B100AA1BB117AD1B3117A917AA01AC17B7
:1005C800AD01320833020318002BAB35AC0DAD0D6D
:1005D800B203320833060319FB2AB103310807397D
:1005E8000319FB2AE92AAA36A90CA80CB30A33086E
:1005F800320603191A2BF72A3308320203181A2B6A
:10060800A835A90DAA0DB303320833060319162B12
:10061800B103310807390319162B042BAD36AC0C7E
:10062800AB0CB20A33083206031D122BB11F252B5F
:10063800FF30A806A906AA06A80A0319A90A0319D9
:10064800AA0A311F2D2B672680310319AC0A03191A
:10065800AD0AB1012808AB072908AC3D2A08AD3D11
:10066800AD1F3E2B672680310319AC0A0319AD0A6A
:10067800B101B10A2B08A0002C08A1002D08A20086
:100688003308A3003108A40008222008A800210884
:10069800A9002208AA0008003908380437040319F9
:1006A800572B8030B9063A08A8003B08A9003C0837
:1006B800AA003708AB003808AC003908AD00A22200
:1006C8002808B7002908B8002A08B90008005326E6
:1006D80080310310250D260DAC002C08031D792B45
:1006E800A001A101A201A3010800532680311730FF
:1006F800A636A50CA40C890B7C2B2408A700A117EF
:10070800A2012008A8002108A9002208AA008E300A
:10071800AB01AC02AC1F9C2B2C08803A8F3E031C0B
:10072800742BAB36AA0CA90CA80CAC0F952BA92BD3
:1007380018302C020318742B2C080319A92BA83580
:10074800A90DAA0DAB0DAC03A02B27080319B72BD5
:10075800A809A909AA09AB09A80A0319A90A03192A
:10076800AA0A0319AB0A2B08A3002A08A200290821
:10077800A1002808A000080031081F390907090747
:100788000907AF003C30D62380313208B400310865
:10079800B3000530B436B30C890BCE2B3308AF0049
:1007A8003D30D62BB000AC002F08AD002F30782C90
:1007B8000330AF01AF0AE82380310E30AF001F309D
:1007C800E82380310030FC2BB000AC002F08AD00CE
:1007D8004C30782C04302000B1003D30890BF22BCE
:1007E800B10BF22B0032AB302000AF003230D62BE9
:1007F800B100AF002130E82B0230F000F10177089A
:100808008C258031F401F501F60198250234F001B8
:10081800F00AF10177088C258031F401F501F60121
:1008280098250234F001F00AF10177088C2580310F
:10083800F401F501F601982504347E1C242C002CC3
:1008480002302000A000A1012708E6248031200002
:10085800A401A501A601F82402347E1C342C0B2C1B
:100868002000A001A00AA1012708E6248031200069
:10087800A401A501A601F82402347E1C442C162CE0
:100888002000A001A00AA1012708E6248031200049
:10089800A401A501A601F82404347E1C542C6F2D54
:1008A80002302000A000A1012708E62480312000A2
:1008B800A401A501A601F82404347E1C642C7A2D19
:1008C8002000270886008701403FA000413FA10083
:1008D8002708023E86000108E62480312000A40192
:1008E800A501A601F8240234AE002E0802258031A5
:1008F800003A0319792C4130A4000430A5002D30AA
:10090800A600F82480312C30A001A00AA101E62419
:1009180080313D302000A4000F30A500A6014725F6
:10092800803100258031D4248031013A031D08002C
:10093800972CAD002A30B1000230AF00B0012D086D
:1009480002258031003A0319A32C3130A400043069
:10095800A5003130A600F82480312C30A001A00A6F
:10096800A101E62480313D302000A4000F30A5000D
:10097800A6014725803100258031D4248031AE007E
:100988002E030319C12C2E080319D22CFF30AF07F0
:10099800031CB0032F083004031DA32C31080800E2
:1009A800A001A00A21004018E32CFF30C010C100AC
:1009B8002E000F10191021004A082000A000200066
:1009C80020080800A2002100401D0800200022087D
:1009D8002100C200200021082100C40020002008B6
:1009E8002100C300401108002508A1002408A00028
:1009F8002608A20000304F2D0030C12DA200A3010F
:100A0800A30A2100C018442D200022082100C1009B
:100A18000E304010C014C011C900F430C7000130B6
:100A2800C80042304015CB000F30CC004230D7010F
:100A3800CD000F30CE004230D801CF000F30D000AB
:100A48004230D901D1000F30D2004730DA01D3004B
:100A58000F30D400DB0149262E000F10FC30200097
:100A6800A0000730A1002108DE002008DD00FB30CF
:100A7800A0000530A1002108DC002008DB00A3014C
:100A88002000230808002508A1002408A000260843
:100A9800A20002304F2DA300200821040319622D63
:100AA8002335CB3E860087012008C03F2108C13F7F
:100AB8002308D73E86002208810008002335CB3E54
:100AC800860042308701C03F0F30C13F2308D73E20
:100AD8008600810108000230F000F10177088C25BA
:100AE8008031F401F501F601982504347708860071
:100AF8008701403FF000413FF1007708023E860041
:100B080001088C258031F401F501F601982502349D
:100B1800F2002100401D08007208C2007108C400DC
:100B28007008C300401108007508F1007408F0004F
:100B38007608F2000030A1250800F300700871045F
:100B48000319B42D7335CB3E860087017008C03F6A
:100B58007108C13F7308D73E8600720881000800FB
:100B68007335CB3E860042308701C03F0F30C13F0E
:100B78007308D73E860081010800AA00AB01AB0AC2
:100B88002100401CCA2D20002B080800401420001A
:100B9800AB012A080319D42D2100C901C90AD72D90
:100BA80002302100C900230011142E001908013950
:100BB8002000A000200C0318C72DF52D00302E00B2
:100BC8000F18F32DE82DF32D2E000F1CEE2DF32D0D
:100BD800EE2DF32D0830890BEF2D0000E82DFB25B5
:100BE800803121004018E22DC72DE22DC72D7E1C33
:100BF800FE2D272E172680312100C01D0A2E1A2609
:100C08008031031C0A2E0F302100C900210049350C
:100C1800A03E86008701413F8A00403F0A00863196
:100C28002100C90008002E000F1008002300110839
:100C3800BF3940389100110E890C890C0139200008
:100C4800A000200C08002E000F102100C01D3C2E13
:100C580023001108BF3940389100110E890C890C06
:100C68000139F000700C031C3C2E0F302100C90024
:100C780021004935A03E86008701413F8A00403F58
:100C88000A0086312100C90008002300901A0800D4
:100C98008F0128309000910103308D000800200852
:100CA800A4002108A5002208A60008002B08B20706
:100CB8002C08B33D2D08B43D080055303D008F0089
:100CC800AA308F000800FF30AB06AC06AD06AB0AB1
:100CD8000800A801A901AA010800B401B501B601DC
:100CE80008007E1C782E912E0230C011CA005908C7
:100CF8002000A7000F30C03E86008701413F8A00D0
:100D0800403F0A008631023A03198F2E013A03192F
:100D18008F2E902E0800AC2FA12F21000230C01179
:100D2800CA009A2EA9270800962708005908F70034
:100D38000F30C03E86008701413F8A00403F0A00CD
:100D48008631023A0319962E013A0319962E982EE7
:100D580008007E1CB02ED02E401557082000A70092
:100D68000B30C03E86008701413F8A00403F0A00A1
:100D78008631013A0319CF2E033A0319CB2E013AD3
:100D88000319CB2E073A0319CC2ECF2E0800AC2F0F
:100D98002E000F140334A12F21004015DA2EA927A5
:100DA80008002E000F140334962708005708F70090
:100DB8000B30C03E86008701413F8A00403F0A0051
:100DC8008631013A0319D82E033A0319D32E013A72
:100DD8000319D32E073A0319D52ED82E08007E1CE6
:100DE800F62E932F9E2702347E1CFB2E462F2300BF
:100DF8001108BF3940389100110E890C890C01394E
:100E08002000A000200C03180D2F272F992FF32E58
:100E1800A12F21005A082000A7001130C03E8600EB
:100E28008701413F8A00403F0A008731013A031990
:100E38000C2F033A03190A2F013A03190B2F073A0B
:100E480003190C2F0C2F2100C230C0118600870116
:100E5800403F84008501810A00082000A000200886
:100E680023008C0001302100C3020030C43B43083A
:100E78004404031D412F0630422F03302000A800F0
:100E8800A901080023001108BF3940389100110E4C
:100E9800890C890C0139F000700C03185A2F732F34
:100EA80090270800932708009627080021005A0871
:100EB800F7001130C03E86008701413F8A00403F5D
:100EC8000A008731013A0319582F033A0319542F9E
:100ED800013A0319562F073A0319582F582F2100A2
:100EE800C230C01186008701403F84008501810A15
:100EF8000008F000700823008C0001302100C302B4
:100F08000030C43B43084404031D8C2F06308D2F4A
:100F18000330F800F901080023009114013423007C
:100F2800911402342300111500347E1C9C2F902F3D
:100F38009E2701342300911408007E1CA42F962FAD
:100F4800A62700342300111508002300911401344A
:100F58007E1CAF2FA92F9E270134D1340734E734E4
:100F680007346F340F34F834063487340F3463345D
:100F78000F34AD34063499340734F3340634AC34C2
:100F88000734A134073458340F34F7340F3482341B
:100F98000F34DA340734753406347E1CD42FD52F39
:100FA800E32F21000E304010CA0108007E1CDD2FFF
:100FB800DE2FE32F21000E304010CA0108000E304A
:100FC8004010CA0108007E1CEA2FF32FC015031435
:100FD800410D2000A000200823008C0005342100CA
:100FE800C0150314410DF000700823008C0005346F
:060FF8002E008F1008001E
:101E7A007E1C0334412F033403347E1C0134462F65
:101E8A00013401347E1C05344B2F053405346400BB
:101E9A0080010131890B4D2F0034FE0012001E0013
:101EAA00FE0B532F00347E1C5B2F5F2F23009112F1
:101EBA001116053423009112111605347E1C662F63
:101ECA006A2FC0112300911504342100C011230088
:101EDA00911504347E1C722F7A2FC01541352000CB
:101EEA00A000200823008C0003342100C0154135CE
:101EFA00F000700823008C0003347E1C852FF32F1A
:101F0A00FC2709347E1C8A2FBB2F420886008701D2
:101F1A0023000C08810021000130C20AC3020030EC
:101F2A00C43B4308440403199E2F2300911211163F
:101F3A000534401557082000A7000B30C03E860024
:101F4A008701413F8A00403F0A008F31013A031955
:101F5A00BA2F033A0319B92F013A0319B92F073ACD
:101F6A000319BA2FBA2F0800822FF72F210042082F
:101F7A008600870123000C08810021000130C20A73
:101F8A00C3020030C43B430844040319D02F230082
:101F9A009112111605344015D62FF3270800EF27A2
:101FAA0008005708F7000B30C03E86008701413F02
:101FBA008A00403F0A008F31013A0319D42F033AAD
:101FCA000319D22F013A0319D22F073A0319D42F32
:101FDA00D42F08002300911611160A3423009116F3
:101FEA00111609347E1CFA2FEF2FFC270A3423001E
:061FFA009116111608000B
:020000040001F9
:0A000E00EC3FFF3F9F3FFF3FFF3F25
:00000001FF
